:100D0600BFA8B5C4C0E0D0CD3A20002558000D0AD2
:100D16000D0A00BFA8D0F2C1D0BAC53A20002558A6
:100D26002000BFA8C6ACB6C1BFE93A200020000D1E
:100D36000A0012345678EDCBA9871234567801FE94
:0C0D460001FE00000001FFFFFFFFFFFFA7
:100E7100D3EF9400EE940040147D6E7C00ED1D7064
:0D0E8100011CED4C70F7EF1F70E61E80E3C2
:010E8E002241
:10035F00120E1180117B007A0079087F52120CA5C2
:10036F008F22E522600B12094F120ECC120EA180C4
:10037F00E47BFF7A0D7906120065E4F523740825F6
:10038F0023F8E6752400F5257BFF7A0D7911852476
:10039F0029F52A1200650523E523C3940240DE7B6D
:1003AF00FF7A0D79141200657B007A007908120A22
:1003BF00638F22E522709E7BFF7A0D7919120065FB
:1003CF00E4F52374082523F8E6752400F5257BFF53
:1003DF007A0D7924852429F52A1200650523E52352
:1003EF00C3940440DE7BFF7A0D79141200657B0005
:1003FF007A007908120ADE8F22E522600302036475
:10040F00752B00752C00752D087BFF7A0D794C7DAF
:10041F00017F60120B598F22E52260030203647B78
:10042F00FF7A0D79387F011208948F22E52260033D
:10043F000203647B007A0079087F52120CA58F2289
:10044F00E522600B12094F120ECC120EA180E47B35
:10045F00007A007908120A638F22E52270D57B009B
:10046F007A007908120ADE8F22E52270C6752B00FA
:10047F00752C00752D087BFF7A0D794C7D017F60FF
:10048F00120B598F22E52270AA7BFF7A0D79487DD6
:10049F00017FC01206C48F22E52270977D027F0173
:1004AF00120BCE8F22E522708A7B007A0079087FAB
:1004BF0002120C428F22E52260030204427BFF7A74
:1004CF000D7928120065E4F52374082523F8E675E5
:1004DF002400F5257BFF7A0D7911852429F52A1241
:1004EF000065E5236403600BE52364076005E523DE
:1004FF00B40B097BFF7A0D79331200650523E523D1
:10050F00C3941040C47BFF7A0D7935120065C28009
:10051F007F207E03120E71D2807F207E03120E7118
:06052F00120DD40204428B
:100E1100E4F584F585F591F592F5B175B2FF75802C
:100E2100FF7590FF75B0FF75A0FF7589217598500A
:100E3100758DFA758BFAF58CF58AD28CD2A9D28E82
:090E4100D299D2AFD2ACD29822B2
:080CA5008F268B278A2889297C
:100CAD00120E8F7D077F0D120D997D037F14120E8D
:100CBD00B385262C754701754800754900754A2C7A
:100CCD00754B00754C00754D2A7A00792C12054E26
:100CDD00EF7023E52B6410452A701BAB27AA28A9BA
:100CED0029E52C1207F2AB27AA28A929900001E5C6
:080CFD002D12080480027FFEA5
:010D050022CB
:060A63008B268A2789287A
:100A6900E4F52A120E8FE4FD7F0D120D997D807F2A
:100A79000E120E93752D93752E2075470275480039
:100A8900754900754A2D754B00754C00754D2B7BCA
:100A9900007A00792D7F0C1205528F29E529702BD8
:100AA900FF742D2FF8E6AB26AA27A9288F82758314
:100AB90000120804742D2FF8E6622A0FBF04E274AD
:100AC9002D2FF8E6652A60037529FE7D807F0E12B9
:040AD9000EB3AF2980
:010ADD0022F6
:060ADE008B268A278928FF
:100AE400752B93752C70E4F531FFAB26AA27A92842
:100AF4008F827583001207C5FE742D2FF8A6068F0A
:100B0400827583001207C562310FBF04DD75420090
:100B14007543007544327B007A00792B7D071209F6
:100B2400ED120E8F754709754800754900754A2BFB
:100B3400754B00754C00754D297B007A00792B7F2D
:100B44000C120552EF700BE52A641845297003FF57
:040B540080027FFE9E
:010B5800227A
:060B59008B288A29892A7D
:100B5F008F318D32E4FFAB28AA29A92A8F827583A2
:100B6F00001207C5FE74332FF8A6060FBF06E7E481
:100B7F00FFAB2BAA2CA92D8F827583001207C5FE00
:100B8F0074392FF8A6060FBF06E775470C75480096
:100B9F00754900754A31754B00754C00754D2F7BAB
:100BAF00007A0079317F0E1205528F2EE52E7009D3
:0E0BBF007F08120D58EF20E303752EFEAF2EB7
:010BCD002205
:060C42008B268A27892899
:100C4800752B308F2C75420075430075442D7A0042
:100C5800792B1209E9754704754800754900754AEA
:100C68002B754B00754C00754D297B007A00792B4C
:100C78007F0C120552EF7022E52A64904529701AFC
:100C8800FE742B2EF8E6AB26AA27A9288E82758338
:0C0C9800001208040EBE10E980027FFE6E
:010CA400222D
:060894008B268A2789284B
:10089A00752BA08F2C75420075430075442D7B0083
:1008AA007A00792B7D021209ED75470475480075A7
:1008BA004900754A2B754B00754C00754D297B0014
:1008CA007A00792B7F0C120552EF7010E52A640426
:1008DA0045297008E52B540F640A60027FFEEF7009
:1008EA0063FEAB26AA27A9288E827583001207C544
:1008FA00FD742B2EF8A6050EBE10E775420075434F
:10090A000075443B7B007A00792B7D101209ED7546
:10091A004712754800754900754A2B754B00754C8E
:10092A0000754D297B007A00792B7F0C120552EF56
:10093A007010E52A640445297008E52B540F640AEF
:04094A0060027FFECA
:01094E002286
:0806C4008D268B278A28892965
:1006CC008F2C85262D75420075430075442E7B00BA
:1006DC007A00792C7D021209ED7547047548007576
:1006EC004900754A2C754B00754C00754D2A7B00E2
:1006FC007A00792C7F0C120552EF7010E52B6404F4
:10070C00452A7008E52C540F640A60027FFEEF70D6
:10071C0057FEAB27AA28A9298E827583001207C51C
:10072C00FD742C2EF8A6050EBE10E775420075431D
:10073C00007544307B007A00792C7D041209EDE4BD
:10074C00F52AF52B754706F548754900754A2CF5C1
:10075C004B754C00754D2AFB7A00792C7F0C1205D9
:10076C0052EF64FE6002E4FFEF704D752CB08526ED
:10077C002DF54275430075442EFB7A00792C7D02D1
:10078C001209ED754704754800754900754A2C75BA
:10079C004B00754C00754D2A7B007A00792C7F0C30
:1007AC00120552EF7010E52B6404452A7008E52CF5
:0807BC00540F640A60027FFE85
:0107C4002212
:020BCE008D2672
:100BD0007529C28F2A1209DC120535EF7010E5283D
:100BE000640445277008E529540F640A60027FFEFB
:100BF000EF7027F529F52AF52BF52CF54275430002
:100C000075442DFB7A0079297D041209ED7547069C
:100C1000120538EF64FE6002E4FFEF60037FFE22FE
:100C20007529B085262A1209DC120535EF7010E50A
:100C300028640445277008E529540F640A60027F80
:010C4000FEB5
:010C41002290
:100DD400752950E4F52AF54275430075442BFB7AD6
:100DE4000079297D021209ED75470475480075499B
:100DF40000754A29754B00754C00754D277B007AA8
:0C0E04000079297F0C1205528F267F0018
:010E100022BF
:1009DC0075420075430075442B7A0079297B007DA4
:0109EC000208
:0809ED008B3E8A3F89408D41D9
:1009F5007D047F05120E93120D957D807F0A120EE0
:100A0500B3E4F545E545C395415019AB3EAA3FA969
:100A1500408545827583001207C5FD7F09120D9932
:100A2500054580E07D037F01120D997545FF7F0522
:100A3500120D581545E5456004EF30E2F17F2212AD
:100A45000D58AB42AA43A944EF1207F27F21120DBC
:0E0A550058AB42AA43A944900001EF020804E6
:10094F00D2A0E4F526000526E526B47FF8C2A0E480
:10095F00F526000526E526B4FFF8D2A0E4F526001B
:10096F000526E526B4FFF8E4F526000526E526B4AE
:10097F00FFF8E4F526000526E526B4FFF87D0F7F86
:10098F0001120D997D3D7F11120D997D1E7F2D1244
:10099F000D99E4FD7F2C120D997D8D7F2A120D99F3
:1009AF007D3E7F2B120D997D407F15120D997D7025
:1009BF007F26120D997DF47F27120D997D3F7F2899
:0C09CF00120D997D117F29120D997F00F7
:0109DB0022F9
:060D5200AC07AB05E4FE56
:100D5800E4FEC296C297EF25E0547E4480FF7D08EA
:100D6800EF30E703D38001C39295D296EF25E0FFD9
:100D7800C296DDEC7D08D296EE25E0FEA294E4331F
:0C0D88004206C296DDF0D297D296AF066C
:010D9400223C
:040D9500E4FD7F01F9
:100D9900C296C297EF25E0547EFF7E08EF30E70345
:100DA900D38001C39295D296EF25E0FFC296DEEC7F
:100DB9007E08ED30E703D38001C39295D296ED25E5
:0A0DC900E0FDC296DEECD297D29650
:010DD30022FD
:0D0EB300120D52AE07AF04EB4EFD020D997B
:040E8F007D087F0853
:0E0E9300120D52AE07AF04EBF45EFD020D9996
:10053500754704754800754900754A29754B00755E
:0D0545004C00754D277A0079297B007F0C52
:080552008F438B448A45894662
:10055A00754EFEE4F54FF550E54324F4600C24FE95
:10056A00700E754F127550108006754F77755030A2
:10057A00E54F4480FD7F02120D997D807F04120EA3
:10058A0093120D957D807F0A120EB3E4F552F5534E
:10059A00C3E5539547E5529400501FAB44AA45A9B9
:1005AA00468553828552831207C5FD7F09120D992C
:1005BA000553E55370DA055280D6AD437F01120D1B
:1005CA0099E543B40C077D807F0D120EB375520274
:1005DA007553587F04120D588F51E5531553700205
:1005EA001552E55345526009E55120E00455506023
:1005FA00E27D807F0D120E93E55345527003020689
:10060A00B77F06120D58EF541B60030206B4F54E6D
:10061A00E551554F30E003754EFFE543640C600326
:10062A000206B77F0A120D588F517F0C120D58EF30
:10063A005407FD6021E55124FFFFE434FFFEEF7803
:10064A0003C333CE33CED8F97C002DFFEC3EAB4B3F
:10065A00AA4CA94D800FE55175F008A4FFAB4BAA2F
:10066A004CA94DE5F08FF0120826E551700375513B
:10067A0001E551D394124003755112E4F552F55332
:10068A00C3E5539551E552940050227F09120D5843
:10069A00AB48AA49A94A855382855283EF120804B6
:1006AA000553E55370DA055280D6754EFE7D807F7C
:0906BA000C120EB3120D95AF4EA7
:0106C3002214
:100EA1007F14120D58EF540370077D037F14120E47
:010EB100B38D
:010EB200221D
:070ECC007D037F14020E9369
:03000000020EC02D
:0C0EC000787FE4F6D8FD75815302035FD3
:1007C500BB010CE58229F582E5833AF583E02250E9
:1007D50006E92582F8E622BBFE06E92582F8E22233
:0D07E500E58229F582E5833AF583E493224D
:1007F200BB010689828A83F0225002F722BBFE01E6
:02080200F322DF
:10080400F8BB010DE58229F582E5833AF583E8F02A
:10081400225006E92582C8F622BBFE05E92582C8D6
:02082400F222BE
:10082600BB010A89828A83F0E5F0A3F0225006F71D
:0F08360009A7F01922BBFE06F3E5F009F319221A
:10000300E5352429F8E605352278263007027829D4
:10001300E475F00112085E0208452000EB7F2ED242
:10002300008018EF540F2490D43440D4FF30040BD5
:10003300EF24BFB41A0050032461FFE536600215B4
:10004300360539E5397002053830070D7826E47531
:10005300F00112085EEF0207F2020E4A7403D207A0
:100063008003E4C207F5358B268A278928E4F53611
:10007300F538F539E53660077F2012003E80F575C7
:1000830037FFC201C200C202C203C205C206C208D0
:1000930012000CFF700D3007057F0012004FAF39BF
:1000A300AE3822B4255FC2D5C20412000CFF24D09F
:1000B300B40A00501A75F00A783630D50508B6FF31
:1000C3000106C6A426F620D5047002D20380D924E3
:1000D300CFB41A00EF5004C2E5D20402024FD2019A
:1000E30080C6D20080C0D20280BCD2D580BAD205ED
:1000F30080B47F2012003E2002077401B536004011
:10010300F1120003FF12003E020077D208D20680EC
:1001130095120003FB120003FA120003F94A4B7015
:100123000679207A037BFF20022EE536602A7E00C3
:100133008E827583001207C560060EEE653770F078
:10014300C2D5EBC0E0EAC0E0E9C0E0EE120296D00F
:10015300E0F9D0E0FAD0E0FB120845FF60AAEBC05B
:10016300E0EAC0E0E9C0E012003ED0E02401F9D0AB
:10017300E03400FAD0E0FBE5370460DCD537D98002
:10018300877BFF7A027992D202809C791080027970
:1001930008C206C2088008D2D5790A8004790AC247
:1001A300D5E537047002F537E4FAFDFEFF120003CC
:1001B300FC7B08200113120003FD7B1030000A12A0
:1001C3000003FE120003FF7B20EC3382D592D5504F
:1001D30013C3E43000069FFFE49EFEE42001039D69
:1001E300FDE49CFCE4CBF8C201EC700CCFCECDCC8B
:1001F300E824F8F870F38017C3EF33FFEE33FEED16
:1002030033FDEC33FCEB33FB994002FB0FD8E9EBF6
:10021300300105F8D0E0C448B201C0E00AEC4D4E0D
:100223004F78207B0070C2EAB5370040BCC0E012B3
:100233000298D0F0D0E0200104C4C0E0C4B201C0F1
:10024300F0120027D0F0D5F0EB02007712086E0110
:100253001453018E5800E54C00E14201924F019A7C
:0F02630044019A4900FA4301A0550184460184E1
:100272004501844703405000E92D00ED2E01102B6B
:1002820000F123010E2003292A00A94800000108D9
:100292003F3F3F00790AA2D5200314300509B91067
:1002A200020404B9080104A2D52006025001042068
:1002B20002689202B536005034C0E07F2030031944
:1002C2007F30A20272067205500F1202EFC202C202
:1002D20006C205C2087F30800F300503E9C0E01274
:1002E200003E300503D0E0F9D0E0B536CC3005173A
:1002F2007F30B9100C12003E7F583004077F78809F
:1003020003B9080312003E3002057F2D02003E7F32
:10031200202008F87F2B2006F322920280CF286E3D
:10032200756C6C2900D2011200033001F8C2017809
:100332003630D50108F60200A92D50434958120063
:10034200032403B405004001E490033B9312002F01
:0D035200743A12002FD20375360402018E9A
:10084500BB010689828A83E0225002E722BBFE02B1
:09085500E32289828A83E49322E4
:10085E00FAE6FB0808E6F925F0F618E6CA3AF6229B
:10086E00D083D082F8E4937012740193700DA3A319
:10087E0093F8740193F5828883E47374029368602D
:06088E00EFA3A3A380DF2D
:100E4A00EFB40A07740D120E55740A309811A89956
:100E5A00B8130CC2983098FDA899C298B811F63008
:070E6A0099FDC299F59922E0
:00000001FF
